{
  "_format": "hh-sol-artifact-1",
  "contractName": "GalleryNFT",
  "sourceName": "contracts/GalleryNFT.sol",
  "abi": [
    {
      "inputs": [
        {
          "internalType": "address",
          "name": "_initialOwner",
          "type": "address"
        }
      ],
      "stateMutability": "nonpayable",
      "type": "constructor"
    },
    {
      "inputs": [],
      "name": "ApprovalCallerNotOwnerNorApproved",
      "type": "error"
    },
    {
      "inputs": [],
      "name": "ApprovalQueryForNonexistentToken",
      "type": "error"
    },
    {
      "inputs": [],
      "name": "BalanceQueryForZeroAddress",
      "type": "error"
    },
    {
      "inputs": [
        {
          "internalType": "uint256",
          "name": "requiredValue",
          "type": "uint256"
        },
        {
          "internalType": "uint256",
          "name": "valueProvided",
          "type": "uint256"
        }
      ],
      "name": "InsufficientMsgValue",
      "type": "error"
    },
    {
      "inputs": [
        {
          "internalType": "uint256",
          "name": "modelId",
          "type": "uint256"
        },
        {
          "internalType": "uint256",
          "name": "currentSupply",
          "type": "uint256"
        },
        {
          "internalType": "uint256",
          "name": "amountRequested",
          "type": "uint256"
        }
      ],
      "name": "InsufficientSupply",
      "type": "error"
    },
    {
      "inputs": [],
      "name": "MintERC2309QuantityExceedsLimit",
      "type": "error"
    },
    {
      "inputs": [],
      "name": "MintReentrancy",
      "type": "error"
    },
    {
      "inputs": [],
      "name": "MintToZeroAddress",
      "type": "error"
    },
    {
      "inputs": [],
      "name": "MintZeroQuantity",
      "type": "error"
    },
    {
      "inputs": [
        {
          "internalType": "uint256",
          "name": "id",
          "type": "uint256"
        }
      ],
      "name": "ModelAlreadyExists",
      "type": "error"
    },
    {
      "inputs": [
        {
          "internalType": "uint256",
          "name": "id",
          "type": "uint256"
        }
      ],
      "name": "ModelDoesNotExist",
      "type": "error"
    },
    {
      "inputs": [
        {
          "internalType": "address",
          "name": "owner",
          "type": "address"
        }
      ],
      "name": "OwnableInvalidOwner",
      "type": "error"
    },
    {
      "inputs": [
        {
          "internalType": "address",
          "name": "account",
          "type": "address"
        }
      ],
      "name": "OwnableUnauthorizedAccount",
      "type": "error"
    },
    {
      "inputs": [],
      "name": "OwnerQueryForNonexistentToken",
      "type": "error"
    },
    {
      "inputs": [],
      "name": "OwnershipNotInitializedForExtraData",
      "type": "error"
    },
    {
      "inputs": [],
      "name": "TransferCallerNotOwnerNorApproved",
      "type": "error"
    },
    {
      "inputs": [],
      "name": "TransferFromIncorrectOwner",
      "type": "error"
    },
    {
      "inputs": [],
      "name": "TransferToNonERC721ReceiverImplementer",
      "type": "error"
    },
    {
      "inputs": [],
      "name": "TransferToZeroAddress",
      "type": "error"
    },
    {
      "inputs": [],
      "name": "URIQueryForNonexistentToken",
      "type": "error"
    },
    {
      "anonymous": false,
      "inputs": [
        {
          "indexed": true,
          "internalType": "address",
          "name": "owner",
          "type": "address"
        },
        {
          "indexed": true,
          "internalType": "address",
          "name": "approved",
          "type": "address"
        },
        {
          "indexed": true,
          "internalType": "uint256",
          "name": "tokenId",
          "type": "uint256"
        }
      ],
      "name": "Approval",
      "type": "event"
    },
    {
      "anonymous": false,
      "inputs": [
        {
          "indexed": true,
          "internalType": "address",
          "name": "owner",
          "type": "address"
        },
        {
          "indexed": true,
          "internalType": "address",
          "name": "operator",
          "type": "address"
        },
        {
          "indexed": false,
          "internalType": "bool",
          "name": "approved",
          "type": "bool"
        }
      ],
      "name": "ApprovalForAll",
      "type": "event"
    },
    {
      "anonymous": false,
      "inputs": [
        {
          "indexed": true,
          "internalType": "uint256",
          "name": "fromTokenId",
          "type": "uint256"
        },
        {
          "indexed": false,
          "internalType": "uint256",
          "name": "toTokenId",
          "type": "uint256"
        },
        {
          "indexed": true,
          "internalType": "address",
          "name": "from",
          "type": "address"
        },
        {
          "indexed": true,
          "internalType": "address",
          "name": "to",
          "type": "address"
        }
      ],
      "name": "ConsecutiveTransfer",
      "type": "event"
    },
    {
      "anonymous": false,
      "inputs": [
        {
          "indexed": true,
          "internalType": "address",
          "name": "previousOwner",
          "type": "address"
        },
        {
          "indexed": true,
          "internalType": "address",
          "name": "newOwner",
          "type": "address"
        }
      ],
      "name": "OwnershipTransferred",
      "type": "event"
    },
    {
      "anonymous": false,
      "inputs": [
        {
          "indexed": true,
          "internalType": "address",
          "name": "from",
          "type": "address"
        },
        {
          "indexed": true,
          "internalType": "address",
          "name": "to",
          "type": "address"
        },
        {
          "indexed": true,
          "internalType": "uint256",
          "name": "tokenId",
          "type": "uint256"
        }
      ],
      "name": "Transfer",
      "type": "event"
    },
    {
      "inputs": [
        {
          "internalType": "address",
          "name": "to",
          "type": "address"
        },
        {
          "internalType": "uint256",
          "name": "tokenId",
          "type": "uint256"
        }
      ],
      "name": "approve",
      "outputs": [],
      "stateMutability": "payable",
      "type": "function"
    },
    {
      "inputs": [
        {
          "internalType": "address",
          "name": "owner",
          "type": "address"
        }
      ],
      "name": "balanceOf",
      "outputs": [
        {
          "internalType": "uint256",
          "name": "",
          "type": "uint256"
        }
      ],
      "stateMutability": "view",
      "type": "function"
    },
    {
      "inputs": [
        {
          "internalType": "uint256",
          "name": "tokenId",
          "type": "uint256"
        }
      ],
      "name": "getApproved",
      "outputs": [
        {
          "internalType": "address",
          "name": "",
          "type": "address"
        }
      ],
      "stateMutability": "view",
      "type": "function"
    },
    {
      "inputs": [
        {
          "internalType": "uint256",
          "name": "modelId",
          "type": "uint256"
        }
      ],
      "name": "getModel",
      "outputs": [
        {
          "components": [
            {
              "internalType": "uint256",
              "name": "maxSupply",
              "type": "uint256"
            },
            {
              "internalType": "uint256",
              "name": "supply",
              "type": "uint256"
            },
            {
              "internalType": "uint256",
              "name": "price",
              "type": "uint256"
            },
            {
              "internalType": "string",
              "name": "uri",
              "type": "string"
            }
          ],
          "internalType": "struct GalleryNFT.Model",
          "name": "",
          "type": "tuple"
        }
      ],
      "stateMutability": "view",
      "type": "function"
    },
    {
      "inputs": [
        {
          "internalType": "address",
          "name": "owner",
          "type": "address"
        },
        {
          "internalType": "address",
          "name": "operator",
          "type": "address"
        }
      ],
      "name": "isApprovedForAll",
      "outputs": [
        {
          "internalType": "bool",
          "name": "",
          "type": "bool"
        }
      ],
      "stateMutability": "view",
      "type": "function"
    },
    {
      "inputs": [
        {
          "internalType": "uint256",
          "name": "modelId",
          "type": "uint256"
        },
        {
          "internalType": "uint256",
          "name": "amount",
          "type": "uint256"
        },
        {
          "internalType": "address",
          "name": "to",
          "type": "address"
        }
      ],
      "name": "mint",
      "outputs": [],
      "stateMutability": "payable",
      "type": "function"
    },
    {
      "inputs": [],
      "name": "name",
      "outputs": [
        {
          "internalType": "string",
          "name": "",
          "type": "string"
        }
      ],
      "stateMutability": "view",
      "type": "function"
    },
    {
      "inputs": [],
      "name": "owner",
      "outputs": [
        {
          "internalType": "address",
          "name": "",
          "type": "address"
        }
      ],
      "stateMutability": "view",
      "type": "function"
    },
    {
      "inputs": [
        {
          "internalType": "uint256",
          "name": "tokenId",
          "type": "uint256"
        }
      ],
      "name": "ownerOf",
      "outputs": [
        {
          "internalType": "address",
          "name": "",
          "type": "address"
        }
      ],
      "stateMutability": "view",
      "type": "function"
    },
    {
      "inputs": [],
      "name": "renounceOwnership",
      "outputs": [],
      "stateMutability": "nonpayable",
      "type": "function"
    },
    {
      "inputs": [
        {
          "internalType": "address",
          "name": "from",
          "type": "address"
        },
        {
          "internalType": "address",
          "name": "to",
          "type": "address"
        },
        {
          "internalType": "uint256",
          "name": "tokenId",
          "type": "uint256"
        }
      ],
      "name": "safeTransferFrom",
      "outputs": [],
      "stateMutability": "payable",
      "type": "function"
    },
    {
      "inputs": [
        {
          "internalType": "address",
          "name": "from",
          "type": "address"
        },
        {
          "internalType": "address",
          "name": "to",
          "type": "address"
        },
        {
          "internalType": "uint256",
          "name": "tokenId",
          "type": "uint256"
        },
        {
          "internalType": "bytes",
          "name": "_data",
          "type": "bytes"
        }
      ],
      "name": "safeTransferFrom",
      "outputs": [],
      "stateMutability": "payable",
      "type": "function"
    },
    {
      "inputs": [
        {
          "internalType": "address",
          "name": "operator",
          "type": "address"
        },
        {
          "internalType": "bool",
          "name": "approved",
          "type": "bool"
        }
      ],
      "name": "setApprovalForAll",
      "outputs": [],
      "stateMutability": "nonpayable",
      "type": "function"
    },
    {
      "inputs": [
        {
          "internalType": "uint256",
          "name": "modelId",
          "type": "uint256"
        },
        {
          "internalType": "uint256",
          "name": "modelMaxSupply",
          "type": "uint256"
        },
        {
          "internalType": "uint256",
          "name": "price",
          "type": "uint256"
        },
        {
          "internalType": "string",
          "name": "modelUri",
          "type": "string"
        }
      ],
      "name": "setUpModel",
      "outputs": [],
      "stateMutability": "nonpayable",
      "type": "function"
    },
    {
      "inputs": [
        {
          "internalType": "bytes4",
          "name": "interfaceId",
          "type": "bytes4"
        }
      ],
      "name": "supportsInterface",
      "outputs": [
        {
          "internalType": "bool",
          "name": "",
          "type": "bool"
        }
      ],
      "stateMutability": "view",
      "type": "function"
    },
    {
      "inputs": [],
      "name": "symbol",
      "outputs": [
        {
          "internalType": "string",
          "name": "",
          "type": "string"
        }
      ],
      "stateMutability": "view",
      "type": "function"
    },
    {
      "inputs": [
        {
          "internalType": "uint256",
          "name": "tokenId",
          "type": "uint256"
        }
      ],
      "name": "tokenURI",
      "outputs": [
        {
          "internalType": "string",
          "name": "",
          "type": "string"
        }
      ],
      "stateMutability": "view",
      "type": "function"
    },
    {
      "inputs": [],
      "name": "totalSupply",
      "outputs": [
        {
          "internalType": "uint256",
          "name": "",
          "type": "uint256"
        }
      ],
      "stateMutability": "view",
      "type": "function"
    },
    {
      "inputs": [
        {
          "internalType": "address",
          "name": "from",
          "type": "address"
        },
        {
          "internalType": "address",
          "name": "to",
          "type": "address"
        },
        {
          "internalType": "uint256",
          "name": "tokenId",
          "type": "uint256"
        }
      ],
      "name": "transferFrom",
      "outputs": [],
      "stateMutability": "payable",
      "type": "function"
    },
    {
      "inputs": [
        {
          "internalType": "address",
          "name": "newOwner",
          "type": "address"
        }
      ],
      "name": "transferOwnership",
      "outputs": [],
      "stateMutability": "nonpayable",
      "type": "function"
    },
    {
      "inputs": [],
      "name": "withdrawFunds",
      "outputs": [],
      "stateMutability": "nonpayable",
      "type": "function"
    }
  ],
  "bytecode": "0x60806040523480156200001157600080fd5b506040516200198038038062001980833981016040819052620000349162000130565b806040518060400160405280600a81526020016911d85b1b195c9e53919560b21b8152506040518060400160405280600481526020016311d3919560e21b815250816002908162000086919062000209565b50600362000095828262000209565b506000805550506001600160a01b038116620000cb57604051631e4fbdf760e01b81526000600482015260240160405180910390fd5b620000d681620000de565b5050620002d5565b600880546001600160a01b038381166001600160a01b0319831681179093556040519116919082907f8be0079c531659141344cd1fd0a4f28419497f9722a3daafe3b4186f6b6457e090600090a35050565b6000602082840312156200014357600080fd5b81516001600160a01b03811681146200015b57600080fd5b9392505050565b634e487b7160e01b600052604160045260246000fd5b600181811c908216806200018d57607f821691505b602082108103620001ae57634e487b7160e01b600052602260045260246000fd5b50919050565b601f82111562000204576000816000526020600020601f850160051c81016020861015620001df5750805b601f850160051c820191505b818110156200020057828155600101620001eb565b5050505b505050565b81516001600160401b0381111562000225576200022562000162565b6200023d8162000236845462000178565b84620001b4565b602080601f8311600181146200027557600084156200025c5750858301515b600019600386901b1c1916600185901b17855562000200565b600085815260208120601f198616915b82811015620002a65788860151825594840194600190910190840162000285565b5085821015620002c55787850151600019600388901b60f8161c191681555b5050505050600190811b01905550565b61169b80620002e56000396000f3fe60806040526004361061012a5760003560e01c806370a08231116100ab578063b88d4fde1161006f578063b88d4fde14610306578063c87b56dd14610319578063e7d3fe6b14610339578063e985e9c51461034c578063f15007411461036c578063f2fde38b1461038c57600080fd5b806370a082311461027e578063715018a61461029e5780638da5cb5b146102b357806395d89b41146102d1578063a22cb465146102e657600080fd5b806323b872dd116100f257806323b872dd146101f657806324600fc31461020957806342842e0e1461021e5780636352211e146102315780636d3616941461025157600080fd5b806301ffc9a71461012f57806306fdde0314610164578063081812fc14610186578063095ea7b3146101be57806318160ddd146101d3575b600080fd5b34801561013b57600080fd5b5061014f61014a366004611136565b6103ac565b60405190151581526020015b60405180910390f35b34801561017057600080fd5b506101796103fe565b60405161015b9190611199565b34801561019257600080fd5b506101a66101a13660046111ac565b610490565b6040516001600160a01b03909116815260200161015b565b6101d16101cc3660046111e1565b6104d4565b005b3480156101df57600080fd5b50600154600054035b60405190815260200161015b565b6101d161020436600461120b565b610574565b34801561021557600080fd5b506101d161070d565b6101d161022c36600461120b565b610751565b34801561023d57600080fd5b506101a661024c3660046111ac565b610771565b34801561025d57600080fd5b5061027161026c3660046111ac565b61077c565b60405161015b9190611247565b34801561028a57600080fd5b506101e8610299366004611280565b6108aa565b3480156102aa57600080fd5b506101d16108f9565b3480156102bf57600080fd5b506008546001600160a01b03166101a6565b3480156102dd57600080fd5b5061017961090d565b3480156102f257600080fd5b506101d161030136600461129b565b61091c565b6101d1610314366004611363565b610988565b34801561032557600080fd5b506101796103343660046111ac565b6109d2565b6101d16103473660046113df565b610aa8565b34801561035857600080fd5b5061014f610367366004611414565b610be9565b34801561037857600080fd5b506101d1610387366004611447565b610c17565b34801561039857600080fd5b506101d16103a7366004611280565b610ca7565b60006301ffc9a760e01b6001600160e01b0319831614806103dd57506380ac58cd60e01b6001600160e01b03198316145b806103f85750635b5e139f60e01b6001600160e01b03198316145b92915050565b60606002805461040d90611489565b80601f016020809104026020016040519081016040528092919081815260200182805461043990611489565b80156104865780601f1061045b57610100808354040283529160200191610486565b820191906000526020600020905b81548152906001019060200180831161046957829003601f168201915b5050505050905090565b600061049b82610ce2565b6104b8576040516333d1c03960e21b815260040160405180910390fd5b506000908152600660205260409020546001600160a01b031690565b60006104df82610771565b9050336001600160a01b03821614610518576104fb8133610be9565b610518576040516367d9dca160e11b815260040160405180910390fd5b60008281526006602052604080822080546001600160a01b0319166001600160a01b0387811691821790925591518593918516917f8c5be1e5ebec7d5bd14f71427d1e84f3dd0314c0f7b2291e5b200ac8c7c3b92591a4505050565b600061057f82610d09565b9050836001600160a01b0316816001600160a01b0316146105b25760405162a1148160e81b815260040160405180910390fd5b60008281526006602052604090208054338082146001600160a01b038816909114176105ff576105e28633610be9565b6105ff57604051632ce44b5f60e11b815260040160405180910390fd5b6001600160a01b03851661062657604051633a954ecd60e21b815260040160405180910390fd5b801561063157600082555b6001600160a01b038681166000908152600560205260408082208054600019019055918716808252919020805460010190554260a01b17600160e11b17600085815260046020526040812091909155600160e11b841690036106c3576001840160008181526004602052604081205490036106c15760005481146106c15760008181526004602052604090208490555b505b83856001600160a01b0316876001600160a01b03167fddf252ad1be2c89b69c2b068fc378daa952ba7f163c4a11628f55a4df523b3ef60405160405180910390a45b505050505050565b610715610d77565b6008546040516001600160a01b03909116904780156108fc02916000818181858888f1935050505015801561074e573d6000803e3d6000fd5b50565b61076c83838360405180602001604052806000815250610988565b505050565b60006103f882610d09565b6107a76040518060800160405280600081526020016000815260200160008152602001606081525090565b6107b082610da4565b6107d5576040516320cfb32d60e21b8152600481018390526024015b60405180910390fd5b6009600083815260200190815260200160002060405180608001604052908160008201548152602001600182015481526020016002820154815260200160038201805461082190611489565b80601f016020809104026020016040519081016040528092919081815260200182805461084d90611489565b801561089a5780601f1061086f5761010080835404028352916020019161089a565b820191906000526020600020905b81548152906001019060200180831161087d57829003601f168201915b5050505050815250509050919050565b60006001600160a01b0382166108d3576040516323d3ad8160e21b815260040160405180910390fd5b506001600160a01b031660009081526005602052604090205467ffffffffffffffff1690565b610901610d77565b61090b6000610dee565b565b60606003805461040d90611489565b3360008181526007602090815260408083206001600160a01b03871680855290835292819020805460ff191686151590811790915590519081529192917f17307eab39ab6107e8899845ad3d59bd9653f200f220920489ca2b5937696c31910160405180910390a35050565b610993848484610574565b6001600160a01b0383163b156109cc576109af84848484610e40565b6109cc576040516368d2bf6b60e11b815260040160405180910390fd5b50505050565b60606109dd82610ce2565b6109fa57604051630a14c4b560e41b815260040160405180910390fd5b6000828152600a60209081526040808320548352600990915290206003018054610a2390611489565b80601f0160208091040260200160405190810160405280929190818152602001828054610a4f90611489565b8015610a9c5780601f10610a7157610100808354040283529160200191610a9c565b820191906000526020600020905b815481529060010190602001808311610a7f57829003601f168201915b50505050509050919050565b610ab183610da4565b610ad1576040516320cfb32d60e21b8152600481018490526024016107cc565b610adb8383610f2c565b610b1d5760008381526009602052604090819020600101549051630a92278360e41b8152600481018590526024810191909152604481018390526064016107cc565b600083815260096020526040902060020154610b3a9083906114d9565b341015610b775760008381526009602052604090819020600201549051631f2dda7760e21b815260048101919091523460248201526044016107cc565b610b818183610f56565b60008054848252600960205260409091206001018054840190558281035b6000818152600a60205260409020859055600101818110610b9f5781610bc460005490565b14610be257604051639eb498bb60e01b815260040160405180910390fd5b5050505050565b6001600160a01b03918216600090815260076020908152604080832093909416825291909152205460ff1690565b610c1f610d77565b610c2884610f74565b610c4857604051637503c09560e01b8152600481018590526024016107cc565b6040805160808101825284815260006020808301828152838501878152606085018781528a855260099093529490922083518155915160018301559251600282015591519091906003820190610c9e9082611538565b50505050505050565b610caf610d77565b6001600160a01b038116610cd957604051631e4fbdf760e01b8152600060048201526024016107cc565b61074e81610dee565b60008054821080156103f8575050600090815260046020526040902054600160e01b161590565b600081600054811015610d5e5760008181526004602052604081205490600160e01b82169003610d5c575b80600003610d55575060001901600081815260046020526040902054610d34565b9392505050565b505b604051636f96cda160e11b815260040160405180910390fd5b6008546001600160a01b0316331461090b5760405163118cdaa760e01b81523360048201526024016107cc565b60008115801590610dc2575060008281526009602052604090205415155b80156103f8575060008281526009602052604081206003018054610de590611489565b90501192915050565b600880546001600160a01b038381166001600160a01b0319831681179093556040519116919082907f8be0079c531659141344cd1fd0a4f28419497f9722a3daafe3b4186f6b6457e090600090a35050565b604051630a85bd0160e11b81526000906001600160a01b0385169063150b7a0290610e759033908990889088906004016115f8565b6020604051808303816000875af1925050508015610eb0575060408051601f3d908101601f19168201909252610ead91810190611635565b60015b610f0e573d808015610ede576040519150601f19603f3d011682016040523d82523d6000602084013e610ee3565b606091505b508051600003610f06576040516368d2bf6b60e11b815260040160405180910390fd5b805181602001fd5b6001600160e01b031916630a85bd0160e11b1490505b949350505050565b60008281526009602052604081208054600190910154610f4d908490611652565b11159392505050565b610f70828260405180602001604052806000815250610fbc565b5050565b60008115801590610f915750600082815260096020526040902054155b80156103f8575060008281526009602052604090206003018054610fb490611489565b159392505050565b610fc68383611022565b6001600160a01b0383163b1561076c576000548281035b610ff06000868380600101945086610e40565b61100d576040516368d2bf6b60e11b815260040160405180910390fd5b818110610fdd578160005414610be257600080fd5b60008054908290036110475760405163b562e8dd60e01b815260040160405180910390fd5b6001600160a01b03831660008181526005602090815260408083208054680100000000000000018802019055848352600490915281206001851460e11b4260a01b178317905582840190839083907fddf252ad1be2c89b69c2b068fc378daa952ba7f163c4a11628f55a4df523b3ef8180a4600183015b8181146110f657808360007fddf252ad1be2c89b69c2b068fc378daa952ba7f163c4a11628f55a4df523b3ef600080a46001016110be565b508160000361111757604051622e076360e81b815260040160405180910390fd5b60005550505050565b6001600160e01b03198116811461074e57600080fd5b60006020828403121561114857600080fd5b8135610d5581611120565b6000815180845260005b818110156111795760208185018101518683018201520161115d565b506000602082860101526020601f19601f83011685010191505092915050565b602081526000610d556020830184611153565b6000602082840312156111be57600080fd5b5035919050565b80356001600160a01b03811681146111dc57600080fd5b919050565b600080604083850312156111f457600080fd5b6111fd836111c5565b946020939093013593505050565b60008060006060848603121561122057600080fd5b611229846111c5565b9250611237602085016111c5565b9150604084013590509250925092565b6020815281516020820152602082015160408201526040820151606082015260006060830151608080840152610f2460a0840182611153565b60006020828403121561129257600080fd5b610d55826111c5565b600080604083850312156112ae57600080fd5b6112b7836111c5565b9150602083013580151581146112cc57600080fd5b809150509250929050565b634e487b7160e01b600052604160045260246000fd5b600067ffffffffffffffff80841115611308576113086112d7565b604051601f8501601f19908116603f01168101908282118183101715611330576113306112d7565b8160405280935085815286868601111561134957600080fd5b858560208301376000602087830101525050509392505050565b6000806000806080858703121561137957600080fd5b611382856111c5565b9350611390602086016111c5565b925060408501359150606085013567ffffffffffffffff8111156113b357600080fd5b8501601f810187136113c457600080fd5b6113d3878235602084016112ed565b91505092959194509250565b6000806000606084860312156113f457600080fd5b833592506020840135915061140b604085016111c5565b90509250925092565b6000806040838503121561142757600080fd5b611430836111c5565b915061143e602084016111c5565b90509250929050565b6000806000806080858703121561145d57600080fd5b843593506020850135925060408501359150606085013567ffffffffffffffff8111156113b357600080fd5b600181811c9082168061149d57607f821691505b6020821081036114bd57634e487b7160e01b600052602260045260246000fd5b50919050565b634e487b7160e01b600052601160045260246000fd5b80820281158282048414176103f8576103f86114c3565b601f82111561076c576000816000526020600020601f850160051c810160208610156115195750805b601f850160051c820191505b8181101561070557828155600101611525565b815167ffffffffffffffff811115611552576115526112d7565b611566816115608454611489565b846114f0565b602080601f83116001811461159b57600084156115835750858301515b600019600386901b1c1916600185901b178555610705565b600085815260208120601f198616915b828110156115ca578886015182559484019460019091019084016115ab565b50858210156115e85787850151600019600388901b60f8161c191681555b5050505050600190811b01905550565b6001600160a01b038581168252841660208201526040810183905260806060820181905260009061162b90830184611153565b9695505050505050565b60006020828403121561164757600080fd5b8151610d5581611120565b808201808211156103f8576103f86114c356fea26469706673582212204665d8dadee11e6ded600808eb5dc395cd27809160e849c824ea05b4d801d31464736f6c63430008170033",
  "linkReferences": {},
  "deployedLinkReferences": {}
}